{
  "contractName": "Address",
  "abi": [
    {
      "payable": true,
      "stateMutability": "payable",
      "type": "fallback"
    },
    {
      "constant": true,
      "inputs": [
        {
          "name": "_t",
          "type": "address"
        }
      ],
      "name": "getBalance",
      "outputs": [
        {
          "name": "",
          "type": "uint256"
        }
      ],
      "payable": false,
      "stateMutability": "view",
      "type": "function"
    },
    {
      "constant": false,
      "inputs": [
        {
          "name": "_to",
          "type": "address"
        },
        {
          "name": "_amount",
          "type": "uint256"
        }
      ],
      "name": "transfer",
      "outputs": [],
      "payable": false,
      "stateMutability": "nonpayable",
      "type": "function"
    },
    {
      "constant": false,
      "inputs": [
        {
          "name": "_to",
          "type": "address"
        },
        {
          "name": "_amount",
          "type": "uint256"
        }
      ],
      "name": "send",
      "outputs": [],
      "payable": false,
      "stateMutability": "nonpayable",
      "type": "function"
    },
    {
      "constant": false,
      "inputs": [
        {
          "name": "_to",
          "type": "address"
        },
        {
          "name": "_amount",
          "type": "uint256"
        }
      ],
      "name": "call",
      "outputs": [],
      "payable": false,
      "stateMutability": "nonpayable",
      "type": "function"
    },
    {
      "constant": false,
      "inputs": [],
      "name": "withDraw",
      "outputs": [],
      "payable": false,
      "stateMutability": "nonpayable",
      "type": "function"
    },
    {
      "constant": false,
      "inputs": [],
      "name": "withDraw2",
      "outputs": [],
      "payable": false,
      "stateMutability": "nonpayable",
      "type": "function"
    }
  ],
  "bytecode": "0x608060405234801561001057600080fd5b506103fd806100206000396000f300608060405260043610610078576000357c0100000000000000000000000000000000000000000000000000000000900463ffffffff1680630fdb1c101461007a5780633bd9ef2814610091578063a9059cbb146100de578063d0679d341461012b578063f8b2cb4f14610178578063fae1db4c146101cf575b005b34801561008657600080fd5b5061008f6101e6565b005b34801561009d57600080fd5b506100dc600480360381019080803573ffffffffffffffffffffffffffffffffffffffff1690602001909291908035906020019092919050505061024c565b005b3480156100ea57600080fd5b50610129600480360381019080803573ffffffffffffffffffffffffffffffffffffffff1690602001909291908035906020019092919050505061028d565b005b34801561013757600080fd5b50610176600480360381019080803573ffffffffffffffffffffffffffffffffffffffff169060200190929190803590602001909291905050506102d8565b005b34801561018457600080fd5b506101b9600480360381019080803573ffffffffffffffffffffffffffffffffffffffff16906020019092919050505061031c565b6040518082815260200191505060405180910390f35b3480156101db57600080fd5b506101e4610375565b005b60003390508073ffffffffffffffffffffffffffffffffffffffff166108fc3073ffffffffffffffffffffffffffffffffffffffff16319081150290604051600060405180830381858888f19350505050158015610248573d6000803e3d6000fd5b5050565b8173ffffffffffffffffffffffffffffffffffffffff1681620f424090604051600060405180830381858888f19350505050151561028957600080fd5b5050565b8173ffffffffffffffffffffffffffffffffffffffff166108fc829081150290604051600060405180830381858888f193505050501580156102d3573d6000803e3d6000fd5b505050565b8173ffffffffffffffffffffffffffffffffffffffff166108fc829081150290604051600060405180830381858888f19350505050151561031857600080fd5b5050565b60008073ffffffffffffffffffffffffffffffffffffffff168273ffffffffffffffffffffffffffffffffffffffff161415610356573091505b8173ffffffffffffffffffffffffffffffffffffffff16319050919050565b60003390508073ffffffffffffffffffffffffffffffffffffffff163073ffffffffffffffffffffffffffffffffffffffff1631620f424090604051600060405180830381858888f1935050505015156103ce57600080fd5b505600a165627a7a7230582049c868bb2880b676cc8755a741c653c80afe4915c26703689fc020bc8fe3a8da0029",
  "source": "pragma solidity ^0.4.16;\n\ncontract Address {\n\n    function() payable {}\n\n    function getBalance(address _t) view returns (uint) {\n        if (_t == address(0)) {\n            _t = this;\n        }\n        return _t.balance;\n    }\n\n    function transfer(address _to, uint _amount) {\n        _to.transfer(_amount);\n    }\n\n    function send(address _to, uint _amount) {\n        if (!_to.send(_amount)) {\n            throw;\n        }\n    }\n\n    function call(address _to, uint _amount) {\n        if (!_to.call.value(_amount).gas(1000000)()) {\n            throw;\n        }\n    }\n\n    function withDraw() {\n        address to = msg.sender;\n        to.transfer(this.balance);\n    }\n\n    function withDraw2() {\n        address to = msg.sender;\n        if (!to.call.value(this.balance).gas(1000000)()) {\n            throw;\n        }\n    }\n}",
  "sourcePath": "/Users/tanaka-katsunori/ethereum/truffle/hello_truffle/contracts/Address.sol",
  "compiler": {
    "name": "solc",
    "version": "0.4.23+commit.124ca40d.Emscripten.clang"
  },
  "schemaVersion": "2.0.0",
  "updatedAt": "2018-04-25T15:27:32.093Z"
}